:02000000FE2BD5
:1006EE007108F3007008F2000310F30CF20C031003
:1006FE00F30CF20C720883129300CF30F2007208E2
:10070E0095057008F20003300310F20DFF3E031D35
:10071E008B2B0310720D3039F3007308950408000B
:10072E00013083169F008501E33083129F051F134E
:10073E009F131F1485128316051485121314FC3093
:10074E008312920595131508F0390C389500910116
:10075E001215F80183129F149F18B62BB72BB32BCB
:10076E001E08F400F5017408F6007508F700003055
:10077E007702093003197602031CC62BC72BE82B10
:10078E007803031DCB2BCC2BD92B91011215000016
:10079E001A30F500F830F400F40BD32BF50BD32BF5
:1007AE000000F8017708F1007608F00077231A3080
:1007BE00F500F830F400F40BE22BF50BE22B000001
:1007CE00B12B7808031DEC2BED2BFA2BF801F80A50
:1007DE00910112113430F500F130F400F40BF52BC9
:1007EE00F50BF52BFA2B83128512DE2B00288301D5
:0207FE00972B37
:02400E00D43CA0
:00000001FF
