:10000000E92B00308A000408840A820700342C346B
:060010000134013400344C
:1003680083129001000083128F018E0101309000EA
:100378000C1083160C100B138B13080083120E0835
:10038800BA003A08BB000F08BA003A08BC003C089B
:10039800B9003B08B80008005E088A005F088200C0
:1003A800D0218000840A04085D0603190034DF0A9E
:1003B8000319DE0AD429C3308312CD000E30CE00D3
:1003C8000030BA00BB006E228312CB01CC01C701FA
:1003D800C801C501C60108008312C501C601C701CD
:1003E800C8015014CD01CE01CB01CC012430B80096
:1003F8003808CF003508A1003408A000080083128F
:100408005018072A082A152AC22183124A083902D5
:10041800031D102A49083802031C132A142A152A16
:100428002023080020340334C4340E341434003438
:1004380020340334323400349034013464340034CA
:10044800C834003496340034963400342C340134E3
:100458005A3400340E3083123902C430031938027A
:10046800031C372A382A3C2AC330B8000E30B9009A
:100478003908CC003808CB00501C432A442A492AA2
:100488005010B4218312C901CA0108008312390827
:10049800803ADF0080305F02031D542A01303802A1
:1004A800031C572A582A612A831285100130CD0768
:1004B8000318CE0A0030CE07692A8312851401304A
:1004C800CD020030031CCE03CE02051400008312B7
:1004D8000510080083123B084E02031D752A3A08CE
:1004E8004D020318782A792A862A0130C50000307F
:1004F800C6004D083A02BD004E08031C4E0A3B02D6
:10050800BE00922AFF30C500FF30C6003A084D02EF
:10051800BD003B08031C3B0A4E02BE00BF01C001E0
:10052800A72A4608B9004508B8004A226330831252
:10053800BC00BC0B9D2AA02A01308312BF070318F8
:10054800C00A0030C0073E084002031DAD2A3D081E
:100558003F02031CB02AB12A952A080083169F017E
:1005680083129F0107309900831699018113303057
:100578009500831285013030831685008B11F02198
:1005880003308312C3008A30C2005530C100C10B4A
:10059800CB2AC20BCB2AC30BCB2AD22A831205152E
:1005A8008230C200DD30C100C10BD82AC20BD82A64
:1005B800DD2ADF2103308312C3008A30C2005530A0
:1005C800C100C10BE52AC20BE52AC30BE52AEC2AB8
:1005D80083120508C10004300310C10CFF3E031D3F
:1005E800F02A41080339C2004208C4000D2B20300C
:1005F800B8000830B9002E221D2B1030B800043086
:10060800B9002E221D2B4030B8000630B9002E222A
:100618001D2B4408C100C2014208003A0319152BDA
:10062800072B4108023A0319FB2A013A0319012B47
:10063800072B0322EC2A002883124C084E06031DC0
:10064800272B4B084D06031D2A2B2B2B362B47082F
:100658004804031D302B312B362B5014C501C6011D
:10066800B421E82B47084804031D3B2B3C2B532B94
:100678004C084E02031D422B4B084D02031C452B10
:10068800462B4B2BFF30C500FF30C6004F2B0130E7
:10069800C5000030C6000130C7000030C800460859
:1006A800B9004508B8004A2283124608803ADF009C
:1006B80080305F02031D622B013045020318652B51
:1006C800662B702B83124B084D02BF004C08031C8D
:1006D8004C0A4E02C000792B83124D084B02BF0012
:1006E8004E08031C4E0A4C02C0004008803ADF0046
:1006F80080305F02031D822B01303F02031C852BD3
:10070800862BA82B831248084002031D8D2B47080F
:100718003F020318902B912B962B4008C8003F08E6
:10072800C700AF2B21084802031D9C2B2008470255
:1007380003189F2BA02BA72B0130C7070318C80A43
:100748000030C807AF2BAF2B01308312C70200302F
:10075800031CC803C802BE01B52B0130BA003A0811
:10076800BE073E08BA0001300310BA0DFF3E031D54
:10077800B82B03103A0D4F07BB003B0884008313C6
:100788000008BC00840A0008BD0048083D02031D9B
:10079800CF2B47083C02031CD22BD32BB12B3E088E
:1007A800BA0001300310BA0DFF3E031DD62B03100B
:1007B8003A0D4F07BB003B08023E84000008C90001
:1007C800840A0008CA00342B080083133830DD007F
:1007D8000230DE001630DF0020308400D421C5014D
:1007E800C601C701C801C901CA01CB01CC01CD01AD
:0607F800CE018301B22ACC
:02400E009431EB
:00000001FF
