:10000000EA2F00308A000408840A82070034203472
:060010000334013400344A
:100B640083129001000083128F018E0101309000E6
:100B74000C1083160C100B138B13080083120E0831
:100B8400F2007208F3000F08F2007208F40074080F
:100B9400F1007308F00008007E088A007F088200D4
:100BA400CE258000840A04087D0603190034FF0A58
:100BB4000319FE0AD22DC3308312C0000E30C100C7
:100BC4000030F200F3006A268312BE01BF01BA01AD
:100BD400BB01B801B90108007D18F12DF22DFF2DDC
:100BE400C02583123D087102031DFA2D3C087002D2
:100BF400031CFD2DFE2DFF2D212708008312B801B3
:100C0400B901BA01BB017D14C001C101BE01BF011C
:100C14002430F0007008C2003508A1003408A00098
:100C2400080020340334C4340E3414340034D03473
:100C3400073432340034E8340334643400349A34EE
:100C4400023496340034103402342C340134903499
:100C540001340E307102C43003197002031C332EA8
:100C6400342E382EC330F0000E30F1007108831298
:100C7400BF007008BE007D1C402E412E462E7D1004
:100C8400B2258312BC01BD0108007108803AFF003F
:100C940080307F02031D502E01307002031C532E3E
:100CA400542E5D2E831285100130C0070318C10A2B
:100CB4000030C107652E831285140130C002003054
:100CC400031CC103C1020514672E8312051008001A
:100CD400730883124102031D712E72084002031827
:100CE400742E752E822E0130B8000030B9004008F1
:100CF4007202F5004108031C410A7302F6008E2EAD
:100D0400FF30B800FF30B90072084002F5007308E4
:100D1400031C730A4102F600F701F801A52E8312A1
:100D24003908F1003808F0004726E430F4009A2E20
:100D34009B2EF40B992E9E2E00000130F70703180A
:100D4400F80A0030F80776087802031DAB2E750800
:100D54007702031CAE2EAF2E912E0800713083163D
:100D64008F009F0183129F019901831699018113BA
:100D740030309500831285013030831685008B1145
:100D840000260630FB001330FA00AD30F900F90BF1
:100D9400C92EFA0BC92EFB0BC92ED02E83120515B2
:100DA4000230FB000430FA00BA30F900F90BD82EF7
:100DB400FA0BD82EFB0BD82E0000DD250630FB00E5
:100DC4001330FA00AD30F900F90BE62EFA0BE62EDB
:100DD400FB0BE62EED2E83120508F90004300310F8
:100DE400F90CFF3E031DF12E79080339FA007A0845
:100DF400FC000E2F2030F0000830F1002B261E2FAF
:100E04001030F0000430F1002B261E2F4030F0008B
:100E14000630F1002B261E2F7C08F900FA017A080F
:100E2400003A0319162F082F7908023A0319FC2EE9
:100E3400013A0319022F082FEE25ED2E0028831204
:100E44003F084106031D282F3E084006031D2B2F93
:100E54002C2F372F3A083B04031D312F322F372F05
:100E64007D14B801B901B225E92F3A083B04031DEA
:100E74003C2F3D2F542F3F084102031D432F3E08B2
:100E84004002031C462F472F4C2FFF30B800FF3081
:100E9400B900502F0130B8000030B9000130BA0059
:100EA4000030BB003908F1003808F00047268312EF
:100EB4003908803AFF0080307F02031D632F013020
:100EC40038020318662F672F712F83123E084002E1
:100ED400F7003F08031C3F0A4102F8007A2F8312EF
:100EE40040083E02F7004108031C410A3F02F80093
:100EF4007808803AFF0080307F02031D832F013081
:100F04007702031C862F872FA92F83123B087802B0
:100F1400031D8E2F3A0877020318912F922F972FD3
:100F24007808BB007708BA00B02F21083B02031DE4
:100F34009D2F20083A020318A02FA12FA82F0130BB
:100F4400BA070318BB0A0030BB07B02FB02F01301B
:100F54008312BA020030031CBB03BB02F601B62F96
:100F64000130F2007208F6077608F200013003102F
:100F7400F20DFF3E031DB92F0310720D4207F3005B
:100F84007308840083130008F400840A0008F50041
:100F94003B087502031DD02F3A087402031CD32F9B
:100FA400D42FB22F7608F20001300310F20DFF3E69
:100FB400031DD72F0310720D4207F3007308023E7E
:100FC40084000008BC00840A0008BD00352F080016
:100FD40083133830FD000630FE001330FF0020304C
:100FE4008400D225B801B901BA01BB01BC01BD011D
:0C0FF400BE01BF01C001C1018301B02E8D
:02400E00D430AC
:00000001FF
